{
  "address": "0x9fc746379c9FA527e0C0076Fc7A9f43B1F68496b",
  "abi": [
    {
      "inputs": [
        {
          "internalType": "address",
          "name": "_token",
          "type": "address"
        }
      ],
      "stateMutability": "nonpayable",
      "type": "constructor"
    },
    {
      "anonymous": false,
      "inputs": [
        {
          "indexed": true,
          "internalType": "address",
          "name": "from",
          "type": "address"
        },
        {
          "indexed": false,
          "internalType": "address",
          "name": "to",
          "type": "address"
        },
        {
          "indexed": true,
          "internalType": "uint256",
          "name": "amount",
          "type": "uint256"
        },
        {
          "indexed": false,
          "internalType": "uint256",
          "name": "date",
          "type": "uint256"
        },
        {
          "indexed": false,
          "internalType": "uint256",
          "name": "nounce",
          "type": "uint256"
        },
        {
          "indexed": false,
          "internalType": "bytes",
          "name": "signature",
          "type": "bytes"
        },
        {
          "indexed": true,
          "internalType": "enum pylonBridge.Type",
          "name": "process",
          "type": "uint8"
        }
      ],
      "name": "Transfer",
      "type": "event"
    },
    {
      "inputs": [
        {
          "internalType": "address",
          "name": "_of",
          "type": "address"
        },
        {
          "internalType": "uint256",
          "name": "_amount",
          "type": "uint256"
        },
        {
          "internalType": "bytes",
          "name": "signature",
          "type": "bytes"
        }
      ],
      "name": "burn",
      "outputs": [],
      "stateMutability": "nonpayable",
      "type": "function"
    },
    {
      "inputs": [
        {
          "internalType": "address",
          "name": "",
          "type": "address"
        },
        {
          "internalType": "uint256",
          "name": "",
          "type": "uint256"
        }
      ],
      "name": "hasProcessed",
      "outputs": [
        {
          "internalType": "bool",
          "name": "",
          "type": "bool"
        }
      ],
      "stateMutability": "view",
      "type": "function"
    },
    {
      "inputs": [
        {
          "internalType": "address",
          "name": "from",
          "type": "address"
        },
        {
          "internalType": "address",
          "name": "to",
          "type": "address"
        },
        {
          "internalType": "uint256",
          "name": "amount",
          "type": "uint256"
        },
        {
          "internalType": "uint256",
          "name": "nonce",
          "type": "uint256"
        },
        {
          "internalType": "bytes",
          "name": "signature",
          "type": "bytes"
        }
      ],
      "name": "mint",
      "outputs": [],
      "stateMutability": "nonpayable",
      "type": "function"
    },
    {
      "inputs": [],
      "name": "token",
      "outputs": [
        {
          "internalType": "contract petn",
          "name": "",
          "type": "address"
        }
      ],
      "stateMutability": "view",
      "type": "function"
    },
    {
      "inputs": [
        {
          "internalType": "address",
          "name": "",
          "type": "address"
        }
      ],
      "name": "transactionCount",
      "outputs": [
        {
          "internalType": "uint256",
          "name": "",
          "type": "uint256"
        }
      ],
      "stateMutability": "view",
      "type": "function"
    }
  ],
  "transactionHash": "0x3398083603d9ad7103f36bd4a90ac5360f679dbd7525d1aad7a74de929da1817",
  "args": [
    "0x100F6a56A1Cb2e7789964E4A76886e03Cd74c2B7"
  ],
  "numDeployments": 1,
  "solcInputHash": "dad4bb5d9959fc7e46604893fa5e2795",
  "bytecode": "0x60806040523480156200001157600080fd5b506040516200136c3803806200136c8339818101604052810190620000379190620000ea565b80806000806101000a81548173ffffffffffffffffffffffffffffffffffffffff021916908373ffffffffffffffffffffffffffffffffffffffff16021790555050506200011c565b600080fd5b600073ffffffffffffffffffffffffffffffffffffffff82169050919050565b6000620000b28262000085565b9050919050565b620000c481620000a5565b8114620000d057600080fd5b50565b600081519050620000e481620000b9565b92915050565b60006020828403121562000103576200010262000080565b5b60006200011384828501620000d3565b91505092915050565b611240806200012c6000396000f3fe608060405234801561001057600080fd5b50600436106100575760003560e01c80633dc876ca1461005c57806344d171871461008c57806352555702146100a857806399be3375146100c4578063fc0c546a146100f4575b600080fd5b610076600480360381019061007191906109a3565b610112565b60405161008391906109fe565b60405180910390f35b6100a660048036038101906100a19190610a7e565b610141565b005b6100c260048036038101906100bd9190610af2565b6102d4565b005b6100de60048036038101906100d99190610b8c565b6105d9565b6040516100eb9190610bc8565b60405180910390f35b6100fc6105f1565b6040516101099190610c42565b60405180910390f35b60026020528160005260406000206020528060005260406000206000915091509054906101000a900460ff1681565b60018060003373ffffffffffffffffffffffffffffffffffffffff1673ffffffffffffffffffffffffffffffffffffffff16815260200190815260200160002060008282546101909190610c8c565b9250508190555060008054906101000a900473ffffffffffffffffffffffffffffffffffffffff1673ffffffffffffffffffffffffffffffffffffffff166374f4f54785856040518363ffffffff1660e01b81526004016101f2929190610ccf565b600060405180830381600087803b15801561020c57600080fd5b505af1158015610220573d6000803e3d6000fd5b505050506000600181111561023857610237610cf8565b5b833373ffffffffffffffffffffffffffffffffffffffff167fce5a9b86edd3b998c3948a7934c7ecf7dba73c4c5bcf56cf576bca4aa2beeb308742600160003373ffffffffffffffffffffffffffffffffffffffff1673ffffffffffffffffffffffffffffffffffffffff1681526020019081526020016000205488886040516102c6959493929190610d85565b60405180910390a450505050565b60008585856040516020016102eb93929190610e3c565b604051602081830303815290604052805190602001209050600061030e82610615565b905060006103608286868080601f016020809104026020016040519081016040528093929190818152602001838380828437600081840152601f19601f82011690508083019250505050505050610645565b90508873ffffffffffffffffffffffffffffffffffffffff168173ffffffffffffffffffffffffffffffffffffffff16146103d0576040517f08c379a00000000000000000000000000000000000000000000000000000000081526004016103c790610ed6565b60405180910390fd5b600260008a73ffffffffffffffffffffffffffffffffffffffff1673ffffffffffffffffffffffffffffffffffffffff168152602001908152602001600020600087815260200190815260200160002060009054906101000a900460ff161561046e576040517f08c379a000000000000000000000000000000000000000000000000000000000815260040161046590610f68565b60405180910390fd5b6001600260008b73ffffffffffffffffffffffffffffffffffffffff1673ffffffffffffffffffffffffffffffffffffffff168152602001908152602001600020600088815260200190815260200160002060006101000a81548160ff02191690831515021790555060008054906101000a900473ffffffffffffffffffffffffffffffffffffffff1673ffffffffffffffffffffffffffffffffffffffff16638c2a993e89896040518363ffffffff1660e01b8152600401610532929190610ccf565b600060405180830381600087803b15801561054c57600080fd5b505af1158015610560573d6000803e3d6000fd5b5050505060018081111561057757610576610cf8565b5b878a73ffffffffffffffffffffffffffffffffffffffff167fce5a9b86edd3b998c3948a7934c7ecf7dba73c4c5bcf56cf576bca4aa2beeb308b428b8b8b6040516105c6959493929190610d85565b60405180910390a4505050505050505050565b60016020528060005260406000206000915090505481565b60008054906101000a900473ffffffffffffffffffffffffffffffffffffffff1681565b600081604051602001610628919061100a565b604051602081830303815290604052805190602001209050919050565b6000806000610654858561066c565b91509150610661816106bd565b819250505092915050565b60008060418351036106ad5760008060006020860151925060408601519150606086015160001a90506106a187828585610823565b945094505050506106b6565b60006002915091505b9250929050565b600060048111156106d1576106d0610cf8565b5b8160048111156106e4576106e3610cf8565b5b031561082057600160048111156106fe576106fd610cf8565b5b81600481111561071157610710610cf8565b5b03610751576040517f08c379a00000000000000000000000000000000000000000000000000000000081526004016107489061107c565b60405180910390fd5b6002600481111561076557610764610cf8565b5b81600481111561077857610777610cf8565b5b036107b8576040517f08c379a00000000000000000000000000000000000000000000000000000000081526004016107af906110e8565b60405180910390fd5b600360048111156107cc576107cb610cf8565b5b8160048111156107df576107de610cf8565b5b0361081f576040517f08c379a00000000000000000000000000000000000000000000000000000000081526004016108169061117a565b60405180910390fd5b5b50565b6000807f7fffffffffffffffffffffffffffffff5d576e7357a4501ddfe92f46681b20a08360001c111561085e5760006003915091506108fc565b60006001878787876040516000815260200160405260405161088394939291906111c5565b6020604051602081039080840390855afa1580156108a5573d6000803e3d6000fd5b505050602060405103519050600073ffffffffffffffffffffffffffffffffffffffff168173ffffffffffffffffffffffffffffffffffffffff16036108f3576000600192509250506108fc565b80600092509250505b94509492505050565b600080fd5b600080fd5b600073ffffffffffffffffffffffffffffffffffffffff82169050919050565b600061093a8261090f565b9050919050565b61094a8161092f565b811461095557600080fd5b50565b60008135905061096781610941565b92915050565b6000819050919050565b6109808161096d565b811461098b57600080fd5b50565b60008135905061099d81610977565b92915050565b600080604083850312156109ba576109b9610905565b5b60006109c885828601610958565b92505060206109d98582860161098e565b9150509250929050565b60008115159050919050565b6109f8816109e3565b82525050565b6000602082019050610a1360008301846109ef565b92915050565b600080fd5b600080fd5b600080fd5b60008083601f840112610a3e57610a3d610a19565b5b8235905067ffffffffffffffff811115610a5b57610a5a610a1e565b5b602083019150836001820283011115610a7757610a76610a23565b5b9250929050565b60008060008060608587031215610a9857610a97610905565b5b6000610aa687828801610958565b9450506020610ab78782880161098e565b935050604085013567ffffffffffffffff811115610ad857610ad761090a565b5b610ae487828801610a28565b925092505092959194509250565b60008060008060008060a08789031215610b0f57610b0e610905565b5b6000610b1d89828a01610958565b9650506020610b2e89828a01610958565b9550506040610b3f89828a0161098e565b9450506060610b5089828a0161098e565b935050608087013567ffffffffffffffff811115610b7157610b7061090a565b5b610b7d89828a01610a28565b92509250509295509295509295565b600060208284031215610ba257610ba1610905565b5b6000610bb084828501610958565b91505092915050565b610bc28161096d565b82525050565b6000602082019050610bdd6000830184610bb9565b92915050565b6000819050919050565b6000610c08610c03610bfe8461090f565b610be3565b61090f565b9050919050565b6000610c1a82610bed565b9050919050565b6000610c2c82610c0f565b9050919050565b610c3c81610c21565b82525050565b6000602082019050610c576000830184610c33565b92915050565b7f4e487b7100000000000000000000000000000000000000000000000000000000600052601160045260246000fd5b6000610c978261096d565b9150610ca28361096d565b9250828201905080821115610cba57610cb9610c5d565b5b92915050565b610cc98161092f565b82525050565b6000604082019050610ce46000830185610cc0565b610cf16020830184610bb9565b9392505050565b7f4e487b7100000000000000000000000000000000000000000000000000000000600052602160045260246000fd5b600082825260208201905092915050565b82818337600083830152505050565b6000601f19601f8301169050919050565b6000610d648385610d27565b9350610d71838584610d38565b610d7a83610d47565b840190509392505050565b6000608082019050610d9a6000830188610cc0565b610da76020830187610bb9565b610db46040830186610bb9565b8181036060830152610dc7818486610d58565b90509695505050505050565b60008160601b9050919050565b6000610deb82610dd3565b9050919050565b6000610dfd82610de0565b9050919050565b610e15610e108261092f565b610df2565b82525050565b6000819050919050565b610e36610e318261096d565b610e1b565b82525050565b6000610e488286610e04565b601482019150610e588285610e25565b602082019150610e688284610e25565b602082019150819050949350505050565b600082825260208201905092915050565b7f696e636f7272656374207369676e617475726500000000000000000000000000600082015250565b6000610ec0601383610e79565b9150610ecb82610e8a565b602082019050919050565b60006020820190508181036000830152610eef81610eb3565b9050919050565b7f416c72656164792070726f6365737365642074686973207472616e736665722060008201527f7265717565737400000000000000000000000000000000000000000000000000602082015250565b6000610f52602783610e79565b9150610f5d82610ef6565b604082019050919050565b60006020820190508181036000830152610f8181610f45565b9050919050565b600081905092915050565b7f19457468657265756d205369676e6564204d6573736167653a0a333200000000600082015250565b6000610fc9601c83610f88565b9150610fd482610f93565b601c82019050919050565b6000819050919050565b6000819050919050565b611004610fff82610fdf565b610fe9565b82525050565b600061101582610fbc565b91506110218284610ff3565b60208201915081905092915050565b7f45434453413a20696e76616c6964207369676e61747572650000000000000000600082015250565b6000611066601883610e79565b915061107182611030565b602082019050919050565b6000602082019050818103600083015261109581611059565b9050919050565b7f45434453413a20696e76616c6964207369676e6174757265206c656e67746800600082015250565b60006110d2601f83610e79565b91506110dd8261109c565b602082019050919050565b60006020820190508181036000830152611101816110c5565b9050919050565b7f45434453413a20696e76616c6964207369676e6174757265202773272076616c60008201527f7565000000000000000000000000000000000000000000000000000000000000602082015250565b6000611164602283610e79565b915061116f82611108565b604082019050919050565b6000602082019050818103600083015261119381611157565b9050919050565b6111a381610fdf565b82525050565b600060ff82169050919050565b6111bf816111a9565b82525050565b60006080820190506111da600083018761119a565b6111e760208301866111b6565b6111f4604083018561119a565b611201606083018461119a565b9594505050505056fea2646970667358221220adb43daaf770e7df97eec905c8df6ce798216fa2fb27e4dc0fc2cc38d85a386d64736f6c63430008110033",
  "devdoc": {
    "kind": "dev",
    "methods": {},
    "version": 1
  },
  "userdoc": {
    "kind": "user",
    "methods": {},
    "version": 1
  },
  "storageLayout": {
    "storage": [
      {
        "astId": 2384,
        "contract": "contracts/bscBridge.sol:bscBridge",
        "label": "token",
        "offset": 0,
        "slot": "0",
        "type": "t_contract(petn)2377"
      },
      {
        "astId": 2388,
        "contract": "contracts/bscBridge.sol:bscBridge",
        "label": "transactionCount",
        "offset": 0,
        "slot": "1",
        "type": "t_mapping(t_address,t_uint256)"
      },
      {
        "astId": 2394,
        "contract": "contracts/bscBridge.sol:bscBridge",
        "label": "hasProcessed",
        "offset": 0,
        "slot": "2",
        "type": "t_mapping(t_address,t_mapping(t_uint256,t_bool))"
      }
    ],
    "types": {
      "t_address": {
        "encoding": "inplace",
        "label": "address",
        "numberOfBytes": "20"
      },
      "t_bool": {
        "encoding": "inplace",
        "label": "bool",
        "numberOfBytes": "1"
      },
      "t_contract(petn)2377": {
        "encoding": "inplace",
        "label": "contract petn",
        "numberOfBytes": "20"
      },
      "t_mapping(t_address,t_mapping(t_uint256,t_bool))": {
        "encoding": "mapping",
        "key": "t_address",
        "label": "mapping(address => mapping(uint256 => bool))",
        "numberOfBytes": "32",
        "value": "t_mapping(t_uint256,t_bool)"
      },
      "t_mapping(t_address,t_uint256)": {
        "encoding": "mapping",
        "key": "t_address",
        "label": "mapping(address => uint256)",
        "numberOfBytes": "32",
        "value": "t_uint256"
      },
      "t_mapping(t_uint256,t_bool)": {
        "encoding": "mapping",
        "key": "t_uint256",
        "label": "mapping(uint256 => bool)",
        "numberOfBytes": "32",
        "value": "t_bool"
      },
      "t_uint256": {
        "encoding": "inplace",
        "label": "uint256",
        "numberOfBytes": "32"
      }
    }
  }
}