{
  "address": "0x100F6a56A1Cb2e7789964E4A76886e03Cd74c2B7",
  "abi": [
    {
      "inputs": [
        {
          "internalType": "address",
          "name": "bridge",
          "type": "address"
        },
        {
          "internalType": "uint256",
          "name": "supply",
          "type": "uint256"
        }
      ],
      "stateMutability": "nonpayable",
      "type": "constructor"
    },
    {
      "anonymous": false,
      "inputs": [
        {
          "indexed": true,
          "internalType": "address",
          "name": "owner",
          "type": "address"
        },
        {
          "indexed": true,
          "internalType": "address",
          "name": "spender",
          "type": "address"
        },
        {
          "indexed": false,
          "internalType": "uint256",
          "name": "value",
          "type": "uint256"
        }
      ],
      "name": "Approval",
      "type": "event"
    },
    {
      "anonymous": false,
      "inputs": [
        {
          "indexed": true,
          "internalType": "address",
          "name": "previousOwner",
          "type": "address"
        },
        {
          "indexed": true,
          "internalType": "address",
          "name": "newOwner",
          "type": "address"
        }
      ],
      "name": "OwnershipTransferred",
      "type": "event"
    },
    {
      "anonymous": false,
      "inputs": [
        {
          "indexed": true,
          "internalType": "address",
          "name": "from",
          "type": "address"
        },
        {
          "indexed": true,
          "internalType": "address",
          "name": "to",
          "type": "address"
        },
        {
          "indexed": false,
          "internalType": "uint256",
          "name": "value",
          "type": "uint256"
        }
      ],
      "name": "Transfer",
      "type": "event"
    },
    {
      "inputs": [
        {
          "internalType": "address",
          "name": "owner",
          "type": "address"
        },
        {
          "internalType": "address",
          "name": "spender",
          "type": "address"
        }
      ],
      "name": "allowance",
      "outputs": [
        {
          "internalType": "uint256",
          "name": "",
          "type": "uint256"
        }
      ],
      "stateMutability": "view",
      "type": "function"
    },
    {
      "inputs": [
        {
          "internalType": "address",
          "name": "spender",
          "type": "address"
        },
        {
          "internalType": "uint256",
          "name": "amount",
          "type": "uint256"
        }
      ],
      "name": "approve",
      "outputs": [
        {
          "internalType": "bool",
          "name": "",
          "type": "bool"
        }
      ],
      "stateMutability": "nonpayable",
      "type": "function"
    },
    {
      "inputs": [
        {
          "internalType": "address",
          "name": "account",
          "type": "address"
        }
      ],
      "name": "balanceOf",
      "outputs": [
        {
          "internalType": "uint256",
          "name": "",
          "type": "uint256"
        }
      ],
      "stateMutability": "view",
      "type": "function"
    },
    {
      "inputs": [],
      "name": "bridge",
      "outputs": [
        {
          "internalType": "address",
          "name": "",
          "type": "address"
        }
      ],
      "stateMutability": "view",
      "type": "function"
    },
    {
      "inputs": [
        {
          "internalType": "address",
          "name": "owner",
          "type": "address"
        },
        {
          "internalType": "uint256",
          "name": "_amount",
          "type": "uint256"
        }
      ],
      "name": "bridgeBurn",
      "outputs": [],
      "stateMutability": "nonpayable",
      "type": "function"
    },
    {
      "inputs": [
        {
          "internalType": "address",
          "name": "_to",
          "type": "address"
        },
        {
          "internalType": "uint256",
          "name": "_amount",
          "type": "uint256"
        }
      ],
      "name": "bridgeMint",
      "outputs": [],
      "stateMutability": "nonpayable",
      "type": "function"
    },
    {
      "inputs": [],
      "name": "decimals",
      "outputs": [
        {
          "internalType": "uint8",
          "name": "",
          "type": "uint8"
        }
      ],
      "stateMutability": "view",
      "type": "function"
    },
    {
      "inputs": [
        {
          "internalType": "address",
          "name": "spender",
          "type": "address"
        },
        {
          "internalType": "uint256",
          "name": "subtractedValue",
          "type": "uint256"
        }
      ],
      "name": "decreaseAllowance",
      "outputs": [
        {
          "internalType": "bool",
          "name": "",
          "type": "bool"
        }
      ],
      "stateMutability": "nonpayable",
      "type": "function"
    },
    {
      "inputs": [
        {
          "internalType": "address",
          "name": "spender",
          "type": "address"
        },
        {
          "internalType": "uint256",
          "name": "addedValue",
          "type": "uint256"
        }
      ],
      "name": "increaseAllowance",
      "outputs": [
        {
          "internalType": "bool",
          "name": "",
          "type": "bool"
        }
      ],
      "stateMutability": "nonpayable",
      "type": "function"
    },
    {
      "inputs": [],
      "name": "name",
      "outputs": [
        {
          "internalType": "string",
          "name": "",
          "type": "string"
        }
      ],
      "stateMutability": "view",
      "type": "function"
    },
    {
      "inputs": [],
      "name": "owner",
      "outputs": [
        {
          "internalType": "address",
          "name": "",
          "type": "address"
        }
      ],
      "stateMutability": "view",
      "type": "function"
    },
    {
      "inputs": [],
      "name": "renounceOwnership",
      "outputs": [],
      "stateMutability": "nonpayable",
      "type": "function"
    },
    {
      "inputs": [
        {
          "internalType": "address",
          "name": "_newOwner",
          "type": "address"
        }
      ],
      "name": "setBridgeOwner",
      "outputs": [],
      "stateMutability": "nonpayable",
      "type": "function"
    },
    {
      "inputs": [],
      "name": "symbol",
      "outputs": [
        {
          "internalType": "string",
          "name": "",
          "type": "string"
        }
      ],
      "stateMutability": "view",
      "type": "function"
    },
    {
      "inputs": [],
      "name": "totalSupply",
      "outputs": [
        {
          "internalType": "uint256",
          "name": "",
          "type": "uint256"
        }
      ],
      "stateMutability": "view",
      "type": "function"
    },
    {
      "inputs": [
        {
          "internalType": "address",
          "name": "to",
          "type": "address"
        },
        {
          "internalType": "uint256",
          "name": "amount",
          "type": "uint256"
        }
      ],
      "name": "transfer",
      "outputs": [
        {
          "internalType": "bool",
          "name": "",
          "type": "bool"
        }
      ],
      "stateMutability": "nonpayable",
      "type": "function"
    },
    {
      "inputs": [
        {
          "internalType": "address",
          "name": "from",
          "type": "address"
        },
        {
          "internalType": "address",
          "name": "to",
          "type": "address"
        },
        {
          "internalType": "uint256",
          "name": "amount",
          "type": "uint256"
        }
      ],
      "name": "transferFrom",
      "outputs": [
        {
          "internalType": "bool",
          "name": "",
          "type": "bool"
        }
      ],
      "stateMutability": "nonpayable",
      "type": "function"
    },
    {
      "inputs": [
        {
          "internalType": "address",
          "name": "newOwner",
          "type": "address"
        }
      ],
      "name": "transferOwnership",
      "outputs": [],
      "stateMutability": "nonpayable",
      "type": "function"
    }
  ],
  "transactionHash": "0x61f3abf922a4fe81c34eae4a45ffbdeaf5d89947b9bf0eed69cabd878164443d",
  "args": [
    "0x49a6C1398c1BbA28089038E06FA8bE22a3417391",
    "100000000000000000000000"
  ],
  "numDeployments": 1,
  "solcInputHash": "dad4bb5d9959fc7e46604893fa5e2795",
  "bytecode": "0x60806040523480156200001157600080fd5b506040516200264a3803806200264a833981810160405281019062000037919062000431565b81816040518060400160405280600f81526020017f50796c6f6e2045636f20546f6b656e00000000000000000000000000000000008152506040518060400160405280600481526020017f5045544e00000000000000000000000000000000000000000000000000000000815250620000c5620000b96200014860201b60201c565b6200015060201b60201c565b8160049081620000d69190620006e8565b508060059081620000e89190620006e8565b50505081600660006101000a81548173ffffffffffffffffffffffffffffffffffffffff021916908373ffffffffffffffffffffffffffffffffffffffff1602179055506200013e82826200021460201b60201c565b50505050620008ea565b600033905090565b60008060009054906101000a900473ffffffffffffffffffffffffffffffffffffffff169050816000806101000a81548173ffffffffffffffffffffffffffffffffffffffff021916908373ffffffffffffffffffffffffffffffffffffffff1602179055508173ffffffffffffffffffffffffffffffffffffffff168173ffffffffffffffffffffffffffffffffffffffff167f8be0079c531659141344cd1fd0a4f28419497f9722a3daafe3b4186f6b6457e060405160405180910390a35050565b600073ffffffffffffffffffffffffffffffffffffffff168273ffffffffffffffffffffffffffffffffffffffff160362000286576040517f08c379a00000000000000000000000000000000000000000000000000000000081526004016200027d9062000830565b60405180910390fd5b6200029a600083836200038260201b60201c565b8060036000828254620002ae919062000881565b9250508190555080600160008473ffffffffffffffffffffffffffffffffffffffff1673ffffffffffffffffffffffffffffffffffffffff168152602001908152602001600020600082825401925050819055508173ffffffffffffffffffffffffffffffffffffffff16600073ffffffffffffffffffffffffffffffffffffffff167fddf252ad1be2c89b69c2b068fc378daa952ba7f163c4a11628f55a4df523b3ef83604051620003629190620008cd565b60405180910390a36200037e600083836200038760201b60201c565b5050565b505050565b505050565b600080fd5b600073ffffffffffffffffffffffffffffffffffffffff82169050919050565b6000620003be8262000391565b9050919050565b620003d081620003b1565b8114620003dc57600080fd5b50565b600081519050620003f081620003c5565b92915050565b6000819050919050565b6200040b81620003f6565b81146200041757600080fd5b50565b6000815190506200042b8162000400565b92915050565b600080604083850312156200044b576200044a6200038c565b5b60006200045b85828601620003df565b92505060206200046e858286016200041a565b9150509250929050565b600081519050919050565b7f4e487b7100000000000000000000000000000000000000000000000000000000600052604160045260246000fd5b7f4e487b7100000000000000000000000000000000000000000000000000000000600052602260045260246000fd5b60006002820490506001821680620004fa57607f821691505b60208210810362000510576200050f620004b2565b5b50919050565b60008190508160005260206000209050919050565b60006020601f8301049050919050565b600082821b905092915050565b6000600883026200057a7fffffffffffffffffffffffffffffffffffffffffffffffffffffffffffffffff826200053b565b6200058686836200053b565b95508019841693508086168417925050509392505050565b6000819050919050565b6000620005c9620005c3620005bd84620003f6565b6200059e565b620003f6565b9050919050565b6000819050919050565b620005e583620005a8565b620005fd620005f482620005d0565b84845462000548565b825550505050565b600090565b6200061462000605565b62000621818484620005da565b505050565b5b8181101562000649576200063d6000826200060a565b60018101905062000627565b5050565b601f8211156200069857620006628162000516565b6200066d846200052b565b810160208510156200067d578190505b620006956200068c856200052b565b83018262000626565b50505b505050565b600082821c905092915050565b6000620006bd600019846008026200069d565b1980831691505092915050565b6000620006d88383620006aa565b9150826002028217905092915050565b620006f38262000478565b67ffffffffffffffff8111156200070f576200070e62000483565b5b6200071b8254620004e1565b620007288282856200064d565b600060209050601f8311600181146200076057600084156200074b578287015190505b620007578582620006ca565b865550620007c7565b601f198416620007708662000516565b60005b828110156200079a5784890151825560018201915060208501945060208101905062000773565b86831015620007ba5784890151620007b6601f891682620006aa565b8355505b6001600288020188555050505b505050505050565b600082825260208201905092915050565b7f45524332303a206d696e7420746f20746865207a65726f206164647265737300600082015250565b600062000818601f83620007cf565b91506200082582620007e0565b602082019050919050565b600060208201905081810360008301526200084b8162000809565b9050919050565b7f4e487b7100000000000000000000000000000000000000000000000000000000600052601160045260246000fd5b60006200088e82620003f6565b91506200089b83620003f6565b9250828201905080821115620008b657620008b562000852565b5b92915050565b620008c781620003f6565b82525050565b6000602082019050620008e46000830184620008bc565b92915050565b611d5080620008fa6000396000f3fe608060405234801561001057600080fd5b50600436106101165760003560e01c80638c2a993e116100a2578063a9059cbb11610071578063a9059cbb146102e3578063dd62ed3e14610313578063e78cea9214610343578063ea5488ef14610361578063f2fde38b1461037d57610116565b80638c2a993e1461025b5780638da5cb5b1461027757806395d89b4114610295578063a457c2d7146102b357610116565b8063313ce567116100e9578063313ce567146101b757806339509351146101d557806370a0823114610205578063715018a61461023557806374f4f5471461023f57610116565b806306fdde031461011b578063095ea7b31461013957806318160ddd1461016957806323b872dd14610187575b600080fd5b610123610399565b6040516101309190611309565b60405180910390f35b610153600480360381019061014e91906113c4565b61042b565b604051610160919061141f565b60405180910390f35b61017161044e565b60405161017e9190611449565b60405180910390f35b6101a1600480360381019061019c9190611464565b610458565b6040516101ae919061141f565b60405180910390f35b6101bf610487565b6040516101cc91906114d3565b60405180910390f35b6101ef60048036038101906101ea91906113c4565b610490565b6040516101fc919061141f565b60405180910390f35b61021f600480360381019061021a91906114ee565b6104c7565b60405161022c9190611449565b60405180910390f35b61023d610510565b005b610259600480360381019061025491906113c4565b610524565b005b610275600480360381019061027091906113c4565b6105c2565b005b61027f610660565b60405161028c919061152a565b60405180910390f35b61029d610689565b6040516102aa9190611309565b60405180910390f35b6102cd60048036038101906102c891906113c4565b61071b565b6040516102da919061141f565b60405180910390f35b6102fd60048036038101906102f891906113c4565b610792565b60405161030a919061141f565b60405180910390f35b61032d60048036038101906103289190611545565b6107b5565b60405161033a9190611449565b60405180910390f35b61034b61083c565b604051610358919061152a565b60405180910390f35b61037b600480360381019061037691906114ee565b610862565b005b610397600480360381019061039291906114ee565b6108ae565b005b6060600480546103a8906115b4565b80601f01602080910402602001604051908101604052809291908181526020018280546103d4906115b4565b80156104215780601f106103f657610100808354040283529160200191610421565b820191906000526020600020905b81548152906001019060200180831161040457829003601f168201915b5050505050905090565b600080610436610931565b9050610443818585610939565b600191505092915050565b6000600354905090565b600080610463610931565b9050610470858285610b02565b61047b858585610b8e565b60019150509392505050565b60006012905090565b60008061049b610931565b90506104bc8185856104ad85896107b5565b6104b79190611614565b610939565b600191505092915050565b6000600160008373ffffffffffffffffffffffffffffffffffffffff1673ffffffffffffffffffffffffffffffffffffffff168152602001908152602001600020549050919050565b610518610e07565b6105226000610e85565b565b600660009054906101000a900473ffffffffffffffffffffffffffffffffffffffff1673ffffffffffffffffffffffffffffffffffffffff163373ffffffffffffffffffffffffffffffffffffffff16146105b4576040517f08c379a00000000000000000000000000000000000000000000000000000000081526004016105ab90611694565b60405180910390fd5b6105be8282610f49565b5050565b600660009054906101000a900473ffffffffffffffffffffffffffffffffffffffff1673ffffffffffffffffffffffffffffffffffffffff163373ffffffffffffffffffffffffffffffffffffffff1614610652576040517f08c379a000000000000000000000000000000000000000000000000000000000815260040161064990611694565b60405180910390fd5b61065c8282611118565b5050565b60008060009054906101000a900473ffffffffffffffffffffffffffffffffffffffff16905090565b606060058054610698906115b4565b80601f01602080910402602001604051908101604052809291908181526020018280546106c4906115b4565b80156107115780601f106106e657610100808354040283529160200191610711565b820191906000526020600020905b8154815290600101906020018083116106f457829003601f168201915b5050505050905090565b600080610726610931565b9050600061073482866107b5565b905083811015610779576040517f08c379a000000000000000000000000000000000000000000000000000000000815260040161077090611726565b60405180910390fd5b6107868286868403610939565b60019250505092915050565b60008061079d610931565b90506107aa818585610b8e565b600191505092915050565b6000600260008473ffffffffffffffffffffffffffffffffffffffff1673ffffffffffffffffffffffffffffffffffffffff16815260200190815260200160002060008373ffffffffffffffffffffffffffffffffffffffff1673ffffffffffffffffffffffffffffffffffffffff16815260200190815260200160002054905092915050565b600660009054906101000a900473ffffffffffffffffffffffffffffffffffffffff1681565b61086a610e07565b80600660006101000a81548173ffffffffffffffffffffffffffffffffffffffff021916908373ffffffffffffffffffffffffffffffffffffffff16021790555050565b6108b6610e07565b600073ffffffffffffffffffffffffffffffffffffffff168173ffffffffffffffffffffffffffffffffffffffff1603610925576040517f08c379a000000000000000000000000000000000000000000000000000000000815260040161091c906117b8565b60405180910390fd5b61092e81610e85565b50565b600033905090565b600073ffffffffffffffffffffffffffffffffffffffff168373ffffffffffffffffffffffffffffffffffffffff16036109a8576040517f08c379a000000000000000000000000000000000000000000000000000000000815260040161099f9061184a565b60405180910390fd5b600073ffffffffffffffffffffffffffffffffffffffff168273ffffffffffffffffffffffffffffffffffffffff1603610a17576040517f08c379a0000000000000000000000000000000000000000000000000000000008152600401610a0e906118dc565b60405180910390fd5b80600260008573ffffffffffffffffffffffffffffffffffffffff1673ffffffffffffffffffffffffffffffffffffffff16815260200190815260200160002060008473ffffffffffffffffffffffffffffffffffffffff1673ffffffffffffffffffffffffffffffffffffffff168152602001908152602001600020819055508173ffffffffffffffffffffffffffffffffffffffff168373ffffffffffffffffffffffffffffffffffffffff167f8c5be1e5ebec7d5bd14f71427d1e84f3dd0314c0f7b2291e5b200ac8c7c3b92583604051610af59190611449565b60405180910390a3505050565b6000610b0e84846107b5565b90507fffffffffffffffffffffffffffffffffffffffffffffffffffffffffffffffff8114610b885781811015610b7a576040517f08c379a0000000000000000000000000000000000000000000000000000000008152600401610b7190611948565b60405180910390fd5b610b878484848403610939565b5b50505050565b600073ffffffffffffffffffffffffffffffffffffffff168373ffffffffffffffffffffffffffffffffffffffff1603610bfd576040517f08c379a0000000000000000000000000000000000000000000000000000000008152600401610bf4906119da565b60405180910390fd5b600073ffffffffffffffffffffffffffffffffffffffff168273ffffffffffffffffffffffffffffffffffffffff1603610c6c576040517f08c379a0000000000000000000000000000000000000000000000000000000008152600401610c6390611a6c565b60405180910390fd5b610c7783838361126f565b6000600160008573ffffffffffffffffffffffffffffffffffffffff1673ffffffffffffffffffffffffffffffffffffffff16815260200190815260200160002054905081811015610cfe576040517f08c379a0000000000000000000000000000000000000000000000000000000008152600401610cf590611afe565b60405180910390fd5b818103600160008673ffffffffffffffffffffffffffffffffffffffff1673ffffffffffffffffffffffffffffffffffffffff1681526020019081526020016000208190555081600160008573ffffffffffffffffffffffffffffffffffffffff1673ffffffffffffffffffffffffffffffffffffffff168152602001908152602001600020600082825401925050819055508273ffffffffffffffffffffffffffffffffffffffff168473ffffffffffffffffffffffffffffffffffffffff167fddf252ad1be2c89b69c2b068fc378daa952ba7f163c4a11628f55a4df523b3ef84604051610dee9190611449565b60405180910390a3610e01848484611274565b50505050565b610e0f610931565b73ffffffffffffffffffffffffffffffffffffffff16610e2d610660565b73ffffffffffffffffffffffffffffffffffffffff1614610e83576040517f08c379a0000000000000000000000000000000000000000000000000000000008152600401610e7a90611b6a565b60405180910390fd5b565b60008060009054906101000a900473ffffffffffffffffffffffffffffffffffffffff169050816000806101000a81548173ffffffffffffffffffffffffffffffffffffffff021916908373ffffffffffffffffffffffffffffffffffffffff1602179055508173ffffffffffffffffffffffffffffffffffffffff168173ffffffffffffffffffffffffffffffffffffffff167f8be0079c531659141344cd1fd0a4f28419497f9722a3daafe3b4186f6b6457e060405160405180910390a35050565b600073ffffffffffffffffffffffffffffffffffffffff168273ffffffffffffffffffffffffffffffffffffffff1603610fb8576040517f08c379a0000000000000000000000000000000000000000000000000000000008152600401610faf90611bfc565b60405180910390fd5b610fc48260008361126f565b6000600160008473ffffffffffffffffffffffffffffffffffffffff1673ffffffffffffffffffffffffffffffffffffffff1681526020019081526020016000205490508181101561104b576040517f08c379a000000000000000000000000000000000000000000000000000000000815260040161104290611c8e565b60405180910390fd5b818103600160008573ffffffffffffffffffffffffffffffffffffffff1673ffffffffffffffffffffffffffffffffffffffff1681526020019081526020016000208190555081600360008282540392505081905550600073ffffffffffffffffffffffffffffffffffffffff168373ffffffffffffffffffffffffffffffffffffffff167fddf252ad1be2c89b69c2b068fc378daa952ba7f163c4a11628f55a4df523b3ef846040516110ff9190611449565b60405180910390a361111383600084611274565b505050565b600073ffffffffffffffffffffffffffffffffffffffff168273ffffffffffffffffffffffffffffffffffffffff1603611187576040517f08c379a000000000000000000000000000000000000000000000000000000000815260040161117e90611cfa565b60405180910390fd5b6111936000838361126f565b80600360008282546111a59190611614565b9250508190555080600160008473ffffffffffffffffffffffffffffffffffffffff1673ffffffffffffffffffffffffffffffffffffffff168152602001908152602001600020600082825401925050819055508173ffffffffffffffffffffffffffffffffffffffff16600073ffffffffffffffffffffffffffffffffffffffff167fddf252ad1be2c89b69c2b068fc378daa952ba7f163c4a11628f55a4df523b3ef836040516112579190611449565b60405180910390a361126b60008383611274565b5050565b505050565b505050565b600081519050919050565b600082825260208201905092915050565b60005b838110156112b3578082015181840152602081019050611298565b60008484015250505050565b6000601f19601f8301169050919050565b60006112db82611279565b6112e58185611284565b93506112f5818560208601611295565b6112fe816112bf565b840191505092915050565b6000602082019050818103600083015261132381846112d0565b905092915050565b600080fd5b600073ffffffffffffffffffffffffffffffffffffffff82169050919050565b600061135b82611330565b9050919050565b61136b81611350565b811461137657600080fd5b50565b60008135905061138881611362565b92915050565b6000819050919050565b6113a18161138e565b81146113ac57600080fd5b50565b6000813590506113be81611398565b92915050565b600080604083850312156113db576113da61132b565b5b60006113e985828601611379565b92505060206113fa858286016113af565b9150509250929050565b60008115159050919050565b61141981611404565b82525050565b60006020820190506114346000830184611410565b92915050565b6114438161138e565b82525050565b600060208201905061145e600083018461143a565b92915050565b60008060006060848603121561147d5761147c61132b565b5b600061148b86828701611379565b935050602061149c86828701611379565b92505060406114ad868287016113af565b9150509250925092565b600060ff82169050919050565b6114cd816114b7565b82525050565b60006020820190506114e860008301846114c4565b92915050565b6000602082840312156115045761150361132b565b5b600061151284828501611379565b91505092915050565b61152481611350565b82525050565b600060208201905061153f600083018461151b565b92915050565b6000806040838503121561155c5761155b61132b565b5b600061156a85828601611379565b925050602061157b85828601611379565b9150509250929050565b7f4e487b7100000000000000000000000000000000000000000000000000000000600052602260045260246000fd5b600060028204905060018216806115cc57607f821691505b6020821081036115df576115de611585565b5b50919050565b7f4e487b7100000000000000000000000000000000000000000000000000000000600052601160045260246000fd5b600061161f8261138e565b915061162a8361138e565b9250828201905080821115611642576116416115e5565b5b92915050565b7f6f6e6c79206f776e657220697320616c6c6f7765640000000000000000000000600082015250565b600061167e601583611284565b915061168982611648565b602082019050919050565b600060208201905081810360008301526116ad81611671565b9050919050565b7f45524332303a2064656372656173656420616c6c6f77616e63652062656c6f7760008201527f207a65726f000000000000000000000000000000000000000000000000000000602082015250565b6000611710602583611284565b915061171b826116b4565b604082019050919050565b6000602082019050818103600083015261173f81611703565b9050919050565b7f4f776e61626c653a206e6577206f776e657220697320746865207a65726f206160008201527f6464726573730000000000000000000000000000000000000000000000000000602082015250565b60006117a2602683611284565b91506117ad82611746565b604082019050919050565b600060208201905081810360008301526117d181611795565b9050919050565b7f45524332303a20617070726f76652066726f6d20746865207a65726f2061646460008201527f7265737300000000000000000000000000000000000000000000000000000000602082015250565b6000611834602483611284565b915061183f826117d8565b604082019050919050565b6000602082019050818103600083015261186381611827565b9050919050565b7f45524332303a20617070726f766520746f20746865207a65726f20616464726560008201527f7373000000000000000000000000000000000000000000000000000000000000602082015250565b60006118c6602283611284565b91506118d18261186a565b604082019050919050565b600060208201905081810360008301526118f5816118b9565b9050919050565b7f45524332303a20696e73756666696369656e7420616c6c6f77616e6365000000600082015250565b6000611932601d83611284565b915061193d826118fc565b602082019050919050565b6000602082019050818103600083015261196181611925565b9050919050565b7f45524332303a207472616e736665722066726f6d20746865207a65726f20616460008201527f6472657373000000000000000000000000000000000000000000000000000000602082015250565b60006119c4602583611284565b91506119cf82611968565b604082019050919050565b600060208201905081810360008301526119f3816119b7565b9050919050565b7f45524332303a207472616e7366657220746f20746865207a65726f206164647260008201527f6573730000000000000000000000000000000000000000000000000000000000602082015250565b6000611a56602383611284565b9150611a61826119fa565b604082019050919050565b60006020820190508181036000830152611a8581611a49565b9050919050565b7f45524332303a207472616e7366657220616d6f756e742065786365656473206260008201527f616c616e63650000000000000000000000000000000000000000000000000000602082015250565b6000611ae8602683611284565b9150611af382611a8c565b604082019050919050565b60006020820190508181036000830152611b1781611adb565b9050919050565b7f4f776e61626c653a2063616c6c6572206973206e6f7420746865206f776e6572600082015250565b6000611b54602083611284565b9150611b5f82611b1e565b602082019050919050565b60006020820190508181036000830152611b8381611b47565b9050919050565b7f45524332303a206275726e2066726f6d20746865207a65726f2061646472657360008201527f7300000000000000000000000000000000000000000000000000000000000000602082015250565b6000611be6602183611284565b9150611bf182611b8a565b604082019050919050565b60006020820190508181036000830152611c1581611bd9565b9050919050565b7f45524332303a206275726e20616d6f756e7420657863656564732062616c616e60008201527f6365000000000000000000000000000000000000000000000000000000000000602082015250565b6000611c78602283611284565b9150611c8382611c1c565b604082019050919050565b60006020820190508181036000830152611ca781611c6b565b9050919050565b7f45524332303a206d696e7420746f20746865207a65726f206164647265737300600082015250565b6000611ce4601f83611284565b9150611cef82611cae565b602082019050919050565b60006020820190508181036000830152611d1381611cd7565b905091905056fea264697066735822122027968e67c163f913875f0a4613b74b53209ec4999727300c364b0f88be8df63f64736f6c63430008110033",
  "devdoc": {
    "kind": "dev",
    "methods": {
      "allowance(address,address)": {
        "details": "See {IERC20-allowance}."
      },
      "approve(address,uint256)": {
        "details": "See {IERC20-approve}. NOTE: If `amount` is the maximum `uint256`, the allowance is not updated on `transferFrom`. This is semantically equivalent to an infinite approval. Requirements: - `spender` cannot be the zero address."
      },
      "balanceOf(address)": {
        "details": "See {IERC20-balanceOf}."
      },
      "decimals()": {
        "details": "Returns the number of decimals used to get its user representation. For example, if `decimals` equals `2`, a balance of `505` tokens should be displayed to a user as `5.05` (`505 / 10 ** 2`). Tokens usually opt for a value of 18, imitating the relationship between Ether and Wei. This is the value {ERC20} uses, unless this function is overridden; NOTE: This information is only used for _display_ purposes: it in no way affects any of the arithmetic of the contract, including {IERC20-balanceOf} and {IERC20-transfer}."
      },
      "decreaseAllowance(address,uint256)": {
        "details": "Atomically decreases the allowance granted to `spender` by the caller. This is an alternative to {approve} that can be used as a mitigation for problems described in {IERC20-approve}. Emits an {Approval} event indicating the updated allowance. Requirements: - `spender` cannot be the zero address. - `spender` must have allowance for the caller of at least `subtractedValue`."
      },
      "increaseAllowance(address,uint256)": {
        "details": "Atomically increases the allowance granted to `spender` by the caller. This is an alternative to {approve} that can be used as a mitigation for problems described in {IERC20-approve}. Emits an {Approval} event indicating the updated allowance. Requirements: - `spender` cannot be the zero address."
      },
      "name()": {
        "details": "Returns the name of the token."
      },
      "owner()": {
        "details": "Returns the address of the current owner."
      },
      "renounceOwnership()": {
        "details": "Leaves the contract without owner. It will not be possible to call `onlyOwner` functions anymore. Can only be called by the current owner. NOTE: Renouncing ownership will leave the contract without an owner, thereby removing any functionality that is only available to the owner."
      },
      "symbol()": {
        "details": "Returns the symbol of the token, usually a shorter version of the name."
      },
      "totalSupply()": {
        "details": "See {IERC20-totalSupply}."
      },
      "transfer(address,uint256)": {
        "details": "See {IERC20-transfer}. Requirements: - `to` cannot be the zero address. - the caller must have a balance of at least `amount`."
      },
      "transferFrom(address,address,uint256)": {
        "details": "See {IERC20-transferFrom}. Emits an {Approval} event indicating the updated allowance. This is not required by the EIP. See the note at the beginning of {ERC20}. NOTE: Does not update the allowance if the current allowance is the maximum `uint256`. Requirements: - `from` and `to` cannot be the zero address. - `from` must have a balance of at least `amount`. - the caller must have allowance for ``from``'s tokens of at least `amount`."
      },
      "transferOwnership(address)": {
        "details": "Transfers ownership of the contract to a new account (`newOwner`). Can only be called by the current owner."
      }
    },
    "version": 1
  },
  "userdoc": {
    "kind": "user",
    "methods": {},
    "version": 1
  },
  "storageLayout": {
    "storage": [
      {
        "astId": 7,
        "contract": "contracts/bscPetn.sol:bscPetn",
        "label": "_owner",
        "offset": 0,
        "slot": "0",
        "type": "t_address"
      },
      {
        "astId": 128,
        "contract": "contracts/bscPetn.sol:bscPetn",
        "label": "_balances",
        "offset": 0,
        "slot": "1",
        "type": "t_mapping(t_address,t_uint256)"
      },
      {
        "astId": 134,
        "contract": "contracts/bscPetn.sol:bscPetn",
        "label": "_allowances",
        "offset": 0,
        "slot": "2",
        "type": "t_mapping(t_address,t_mapping(t_address,t_uint256))"
      },
      {
        "astId": 136,
        "contract": "contracts/bscPetn.sol:bscPetn",
        "label": "_totalSupply",
        "offset": 0,
        "slot": "3",
        "type": "t_uint256"
      },
      {
        "astId": 138,
        "contract": "contracts/bscPetn.sol:bscPetn",
        "label": "_name",
        "offset": 0,
        "slot": "4",
        "type": "t_string_storage"
      },
      {
        "astId": 140,
        "contract": "contracts/bscPetn.sol:bscPetn",
        "label": "_symbol",
        "offset": 0,
        "slot": "5",
        "type": "t_string_storage"
      },
      {
        "astId": 2301,
        "contract": "contracts/bscPetn.sol:bscPetn",
        "label": "bridge",
        "offset": 0,
        "slot": "6",
        "type": "t_address"
      }
    ],
    "types": {
      "t_address": {
        "encoding": "inplace",
        "label": "address",
        "numberOfBytes": "20"
      },
      "t_mapping(t_address,t_mapping(t_address,t_uint256))": {
        "encoding": "mapping",
        "key": "t_address",
        "label": "mapping(address => mapping(address => uint256))",
        "numberOfBytes": "32",
        "value": "t_mapping(t_address,t_uint256)"
      },
      "t_mapping(t_address,t_uint256)": {
        "encoding": "mapping",
        "key": "t_address",
        "label": "mapping(address => uint256)",
        "numberOfBytes": "32",
        "value": "t_uint256"
      },
      "t_string_storage": {
        "encoding": "bytes",
        "label": "string",
        "numberOfBytes": "32"
      },
      "t_uint256": {
        "encoding": "inplace",
        "label": "uint256",
        "numberOfBytes": "32"
      }
    }
  }
}